:020000040800F2
:100000000000022055020008A5020008A502000811
:10001000A5020008A5020008A502000800000000D3
:10002000000000000000000000000000A502000821
:10003000A502000800000000A5020008A5020008B3
:10004000A5020008A5020008A5020008A5020008F4
:1000500000000000A5020008A5020008A502000893
:10006000A5020008A5020008A5020008A5020008D4
:10007000A5020008A5020008A5020008A5020008C4
:10008000A5020008A5020008A5020008A5020008B4
:10009000A5020008A5020008A5020008A5020008A4
:1000A000A5020008A5020008A5020008A502000894
:1000B000A5020008A5020008A5020008A502000884
:1000C000A5020008A5020008A5020008A502000874
:1000D000A5020008A5020008A5020008A502000864
:1000E000A5020008A5020008A5020008A502000854
:1000F000A5020008A5020008A5020008A502000844
:10010000A5020008A5020008A5020008A502000833
:10011000A5020008A5020008A5020008A502000823
:10012000A5020008A5020008A5020008A502000813
:10013000A5020008A5020008A5020008A502000803
:10014000A5020008A5020008A5020008A5020008F3
:10015000A5020008A5020008A5020008A5020008E3
:10016000A5020008A5020008A5020008A5020008D3
:10017000A5020008A5020008A5020008A5020008C3
:10018000A5020008A5020008000000000000000011
:10019000000000000000000000000000000000005F
:0801A000A5020008A5020008F9
:1001A80010B5054C237833B9044B13B10448AFF3A9
:1001B80000800123237010BD000000200000000013
:1001C8002008000808B5034B1BB103490348AFF3E7
:1001D800008008BD0000000004000020200800087E
:1001E80080B483B000AF00237B6002E07B680133FA
:1001F8007B607B68044A9342F8D900BF00BF0C3784
:10020800BD4680BC704700BF1FA1070080B588B0FD
:1002180000AF0D4B7B600C23BB600123FB60002308
:10022800BB6102233B6100237B610121064800F08A
:1002380037F83B1D184600F01DF90C21024800F064
:10024800B3FAFFF7CDFFF8E7000C02400D488546EA
:10025800AFF300800C480D490D4A002302E0D45842
:10026800C4500433C4188C42F9D30A4A0A4C0023F8
:1002780001E013600432A242FBD300F0A9FAFFF7B1
:10028800C5FFFEE70000022000000020000000205B
:1002980040080008000000201C000020FEE70000C5
:1002A80080B483B000AF78600B46FB70FB78012BFD
:1002B80062D17B68654A934206D1654B1B6B644AE1
:1002C80043F001031363BCE07B68624A934206D1A2
:1002D8005F4B1B6B5E4A43F002031363B1E07B681C
:1002E8005D4A934206D15A4B1B6B594A43F00403AB
:1002F8001363A6E07B68594A934206D1544B1B6BA3
:10030800534A43F0080313639BE07B68544A9342C3
:1003180006D14F4B1B6B4E4A43F01003136390E01A
:100328007B68504A934206D1494B1B6B484A43F0BD
:100338002003136385E07B684B4A934206D1444B04
:100348001B6B434A43F0400313637AE07B68474AD8
:10035800934206D13E4B1B6B3D4A43F08003136327
:100368006FE07B68424A93426BD1394B1B6B384A2A
:1003780043F48073136364E0FB78002B61D17B68DE
:10038800324A934206D1324B1B6B314A23F00103A8
:10039800136356E07B682F4A934206D12C4B1B6BA4
:1003A8002B4A23F0020313634BE07B682A4A9342EB
:1003B80006D1274B1B6B264A23F00403136340E046
:1003C8007B68264A934206D1214B1B6B204A23F0B7
:1003D8000803136335E07B68214A934206D11C4B1E
:1003E8001B6B1B4A23F0100313632AE07B681D4A2A
:1003F800934206D1164B1B6B154A23F02003136357
:100408001FE07B68184A934206D1114B1B6B104AB8
:1004180023F04003136314E07B68144A934206D127
:100428000B4B1B6B0A4A23F08003136309E07B68BC
:100438000F4A934205D1064B1B6B054A23F4807380
:10044800136300BF0C37BD4680BC704700000240F4
:10045800003802400004024000080240000C02403C
:10046800001002400014024000180240001C024024
:100478000020024080B588B000AF78600023FB619F
:100488007B681B6801211846FFF70AFF7B689B6899
:10049800032B1ED87B689A687B685B685B0002FA4E
:1004A80003F3FB617B681B6819687B685B685B000A
:1004B800032202FA03F3DA437B681B680A401A60D6
:1004C8007B681B6819687B681B68FA690A431A60AD
:1004D800CAE07B689B68042B17D14B4BDB687A68B2
:1004E8005268012101FA02F21146474A0B43D360D0
:1004F800454B9B687A685268012101FA02F2D2439F
:100508001146414A0B40936035E07B689B68052B98
:1005180017D13D4B9B687A685268012101FA02F2B3
:100528001146394A0B439360374BDB687A68526847
:10053800012101FA02F2D2431146334A0B40D3603B
:1005480019E07B689B68062B15D12F4BDB687A680E
:100558005268012101FA02F211462B4A0B43D3607B
:10056800294B9B687A685268012101FA02F2114608
:10057800254A0B4393607B685B689B08BB617B687B
:100588005B689BB203F00303FB827B681B681F4A0E
:1005980093424DD07B681B681D4A934232D07B68DA
:1005A8001B681C4A93422BD07B681B681A4A9342EB
:1005B80024D07B681B68194A93421DD07B681B684E
:1005C800174A934216D07B681B68164A93420FD08D
:1005D8007B681B68144A934208D07B681B68134ADF
:1005E800934201D1082324E0002322E0072320E0DE
:1005F80006231EE005231CE004231AE0032318E069
:10060800022316E0012314E0003C014000000240F0
:100618000004024000080240000C024000100240A2
:100628000014024000180240001C02400020024052
:100638000023BB82594B5B6C584A43F48043536494
:10064800BA8AFB8A9B0056499A40BB69023341F833
:100658002320544B1B687A685268012101FA02F280
:100668001146504A0B4313600023FB617B68DA682C
:100678007B685B685B0002FA03F3FB617B681B68BD
:100688009A687B685B685B00032101FA03F3DB432C
:1006980019467B681B680A409A607B681B689968E2
:1006A8007B681B68FA690A439A600023FB617B68D0
:1006B8001A697B685B685B0002FA03F3FB617B687D
:1006C8001B68DA687B685B685B00032101FA03F347
:1006D800DB4319467B681B680A40DA607B681B6845
:1006E800D9687B681B68FA690A43DA600023FB61F2
:1006F8007B685A697B685B6802FA03F3FB617B6875
:100708001B685A687B685B68032101FA03F3DB43C3
:1007180019467B681B680A405A607B681B685968E1
:100728007B681B68FA690A435A600023FB617B688F
:100738009B68022B2ED17B685B68DB083B617B687A
:100748005B6803F00703FB607B681B683A69083243
:1007580053F82220FB689B000F2101FA03F3DB43C7
:1007680019467B681B6811403A69083243F8221021
:100778007B681B683A69083253F822107B689A69CB
:10078800FB689B009A407B681B6811433A690832F2
:1007980043F8221000BF2037BD4680BD0038024014
:1007A80000380140003C014080B483B000AF78605D
:1007B8000B467B807B685B697A88012101FA02F22B
:1007C8005A407B685A6100BF0C37BD4680BC7047F1
:1007D80070B50D4D0D4C641BA4100026A64209D11E
:1007E8000B4D0C4C00F018F8641BA4100026A64210
:1007F80005D170BD55F8043B98470136EEE755F82A
:10080800043B98470136F2E7380800083808000822
:10081800380800083C080008F8B500BFF8BC08BC58
:100828009E467047F8B500BFF8BC08BC9E467047A6
:04083800CD010008E6
:04083C00A901000806
:040000050800025598
:00000001FF
